:020000040800F2
:10000000302A00209D010008A5010008A701000872
:10001000A9010008AB010008AD01000800000000C4
:10002000000000000000000000000000AF01000818
:10003000B101000800000000B3010008B50100088C
:10004000B7010008B9010008150A00080000000007
:1000500000000000BD010008BF010008C101000848
:10006000C301000800000000C5010008C701000826
:10007000C901000800000000CB010008CD01000804
:10008000CF010008D101000800000000D3010008E2
:10009000D501000800000000000000000000000082
:1000A000000000000000000000000000D701000870
:1000B000D9010008DB010008DD010008DF010008AC
:1000C00000F002F800F05AF80AA090E8000C824410
:1000D0008344AAF10107DA4501D100F04FF8AFF2ED
:1000E000090EBAE80F0013F0010F18BFFB1A43F016
:1000F00001031847D0350000F03500000A444FF0E6
:10010000000C10F8013B13F0070408BF10F8014B76
:100110001D1108BF10F8015B641E05D010F8016BBB
:10012000641E01F8016BF9D113F0080F1EBF10F81F
:10013000014BAD1C0C1B09D16D1E58BF01F801CB42
:10014000FAD505E014F8016B01F8016B6D1EF9D5C5
:100150009142D6D3704700000023002400250026DA
:10016000103A28BF78C1FBD8520728BF30C148BF1A
:100170000B6070471FB51FBD10B510BD00F0D6F95C
:100180001146FFF7F7FF01F0E5FC00F0F4F903B4C6
:10019000FFF7F2FF03BC00F0FBF9000013488047B3
:1001A00013480047FEE7FEE7FEE7FEE7FEE7FEE74F
:1001B000FEE7FEE7FEE7FEE7FEE7FEE7FEE7FEE717
:1001C000FEE7FEE7FEE7FEE7FEE7FEE7FEE7FEE707
:1001D000FEE7FEE7FEE7FEE7FEE7FEE7FEE7FEE7F7
:1001E00004480549054A064B7047000059090008B4
:1001F000C100000830240020302A002030260020D2
:100200003026002010B5431C02E010F8011B71B12C
:100210008107FAD14FF0013202C88C1A8C4314EADC
:10022000C211F9D0C01A0A0603D0C01E10BDC01AF0
:1002300010BD0A0401D0801E10BD0902FCD0401E72
:1002400010BD032A40F2308010F0030C00F015803E
:1002500011F8013BBCF1020F624498BF11F801CBC9
:1002600000F8013B38BF11F8013BA2F1040298BF2E
:1002700000F801CB38BF00F8013B11F0030300F098
:100280006780083AC0F0088051F8043B083A51F8FA
:1002900004CBA0E80810F5E7121D5CBF51F8043B41
:1002A00040F8043BAFF30080D20724BF11F8013BB4
:1002B00011F801CB48BF11F8012B24BF00F8013B16
:1002C00000F801CB48BF00F8012B7047431A28BF44
:1002D0009A427FF6B6AF032A1044114440F22680BA
:1002E00010F0030F1EBF11F8013D521E00F8013D32
:1002F00010F0030F7FF4F6AF11F0030300F0EC8071
:10030000083AC0F00B8051F8043D083A51F804CD8A
:1003100040F8043D40F804CDFFF7F3BF121D5CBF69
:1003200051F8043D40F8043DAFF30080D20724BFEC
:1003300011F8013D11F801CD48BF11F8012C24BF7F
:1003400000F8013D00F801CD48BF00F8012C7047CE
:1003500010B5203AC0F00B80B1E81850203AA0E860
:100360001850B1E81850A0E81850BFF4F5AF5FEA94
:10037000027C24BFB1E81850A0E8185044BF18C947
:1003800018C0BDE810405FEA827C24BF51F8043BEE
:1003900040F8043B08BF7047D20728BF31F8023B42
:1003A00048BF11F8012B28BF20F8023B48BF00F8D6
:1003B000012B704702F0FF0343EA032242EA0242A4
:1003C00000F002B84FF000020429C0F0128010F0D3
:1003D000030C00F01B80CCF1040CBCF1020F18BF21
:1003E00000F8012BA8BF20F8022BA1EB0C0100F0B4
:1003F0000DB85FEAC17C24BF00F8012B00F8012B87
:1004000048BF00F8012B70474FF0000200B51346BB
:1004100094469646203922BFA0E80C50A0E80C5024
:10042000B1F12001BFF4F7AF090728BFA0E80C50D5
:1004300048BF0CC05DF804EB890028BF40F8042BCE
:1004400008BF704748BF20F8022B11F0804F18BF3B
:1004500000F8012B704710B5044610F0030F08BFD9
:1004600011F0030F40F015804FF0013E121FC0F253
:100470000E8051F8043BA3EB0E0C2CEA030C1CEA93
:10048000CE1C08BF40F8043BF0D0A1F1040102F1FA
:100490000402521E08DB11F8013B002B00F8013B5F
:1004A000F7D11146FFF78EFF204610BD7047704709
:1004B0007047431A28BF9A427FF64AAF104410F0A3
:1004C000030F11441EBF11F8013D521E00F8013DFB
:1004D00010F0030F7FF4F6AF103AC0F00A8010B5A9
:1004E00031E91850103A20E91850BFF4F9AFBDE8CF
:1004F0001040530724BF31E9081020E9081044BF19
:1005000051F8043D40F8043D12F0030F08BF704756
:10051000D20728BF31F8023D48BF11F8012C28BF8F
:1005200020F8023D48BF00F8012C7047754600F0E6
:100530002BF8AE4605006946534620F00700854675
:1005400018B020B5FFF74CFEBDE820404FF0000684
:100550004FF000074FF000084FF0000B21F00701AB
:10056000AC46ACE8C009ACE8C009ACE8C009ACE8EE
:10057000C0098D46704710B50446AFF30080204691
:10058000BDE81040FFF703BE00487047CC230020B1
:1005900001491820ABBEFEE72600020070470000AC
:1005A0002DE9F04F86B0D0F804908768D0F80CA001
:1005B000D0F810C0D0F8148082690292C26901920A
:1005C0000022012303244FF00116002500950D8819
:1005D000059564E05FEAC57B5CD091F802B029EA3A
:1005E00003090BFA02FB49EA0B0991F808E04FEA0C
:1005F000420B0EFA0BFEA7434EEA0707CDF810B0E8
:1006000091F80AB02AEA030A0BFA02FB4AEA0B0A3B
:1006100091F803E002F1100B0EFA0BFECDF80CB0CE
:1006200091F804B02CEA060C4CEA0E0C0BFA02FB13
:100630004CEA0B0C91F805E0DDF80CB028EA06084E
:100640000EFA0BFE91F806B048EA0E080BFA02FB10
:1006500048EA0B0891F809E0DDF810B00EFA0BFE3D
:10066000DDF808B02BEA040B4EEA0B0ECDF808E0DB
:10067000DDF804B091F807E02BEA030B0EFA02FE56
:100680004BEA0E0BCDF804B0DDF800B04BEA040BDA
:10069000CDF800B05B00A4007600521C6D08002D60
:1006A00098D1059A304940F2FF344FF01F13884229
:1006B00002D14FF01F0101E04FF0000141EA0201B9
:1006C00001D1224601E04FF00002009D42EA0502FE
:1006D00002D14FF01F0501E04FF0000529EA05099E
:1006E00002D14FF01F0501E04FF000052AEA050A8C
:1006F00001D1254601E04FF0000527EA050701D1A9
:100700001D4601E04FF000052CEA050C01D04FF02A
:10071000000328EA030801D04FF00004029D25EAF7
:10072000040502D14FF01F0301E04FF00003019CCC
:1007300024EA0304436823EA01034360836823EA4D
:1007400002038360C26822EA0102C260C0F810C0DE
:100750008561C0F81480C461C0F80CA08760C0F83F
:10076000049006B0BDE8F08F00000C404FF6FF711A
:10077000018000218170C170017141718171C1716D
:100780000172417281727047014908607047000030
:10079000880040420B4AD36823F003030343D3602D
:1007A000506820F4706040EA012050600648D0F89C
:1007B0008810002904D0012140F88C1F002101601D
:1007C00070470000000002400000404208B50020D1
:1007D00000904FF4C063212000F034F80099491CC8
:1007E00000910099994201D20028F4D0212000F014
:1007F00029F808B1012008BD002008BD01490860A2
:100800007047000088014042034AD16821F0F0019E
:1008100041EA0010D060704700000240034AD168EE
:1008200021F440710143D160704700000000024094
:10083000034AD16821F003010143D16070470000F1
:10084000000002400122B2EB501F02D106490968A4
:1008500001E00649C96B00F01F0082400A4201D046
:1008600001207047002070470000024000800D40CA
:1008700009498A6822F003028A60012806D002280A
:1008800003D1886840F0030088607047886840F0B2
:1008900001008860704700000000024008B5002099
:1008A00000904FF4C0632220FFF7CCFF0099491C51
:1008B00000910099994201D20028F4D02220FFF73C
:1008C000C1FF08B1012008BD002008BD054A00296C
:1008D00003D0D1690143D1617047D1698143D161AE
:1008E000704700000000024010B5174BD868174C45
:1008F000800701D5204600E02046D968C90700D00E
:100900001348D968490704D55968C1F30321491C24
:100910004843D9680F4AC1F3012139B1012907D0F1
:1009200002290DD049F64040106010BD146010BD82
:10093000D968C1F30311491CB0FBF1F0106010BD80
:100940004FF40040106010BD0000024000127A0019
:1009500000093D00542000200A49094808600A485F
:100960001021C1610021C16041608160016141616C
:100970008161016241628162C162FFF7B5BF00001F
:100980000000000808ED00E00000024009490A6983
:1009900042F4807302781A4342F004020A614A6802
:1009A00042F00102407842EA001048600868C0073F
:1009B000FCD0704700000240024901EB0010D0F863
:1009C0000001704700000140024901EBC010D0F85F
:1009D0008001704700000140024901EBC010D0F8CF
:1009E0008C01704700000140024901EB0010D0F873
:1009F0000401704700000140024901EB0010D0F8EB
:100A0000080170470000014001480068704700007D
:100A10004801014070B50546FFF7F6FF054CA060A0
:100A2000284600F055FE1F2000F06CF8FFF7ECFFA1
:100A3000A06070BD4400002000B5022000F018F84E
:100A400000204FF47A71401C8842FCD34FF40030F0
:100A50005DF804EB00F00CB8010104480844D0F83C
:100A6000001181F00401C0F800117047000001403E
:100A7000034B1A6881B2114321EA10401860704795
:100A800080030140014908607047000050010140A7
:100A9000034B1A6881B2114321EA10401860704775
:100AA00040010140020105481044D0F800318AB2EB
:100AB0001A4322EA1141C0F80011704700000140BA
:100AC000024A02EBC010C0F89011704700000140CC
:100AD000024A02EBC010C0F8C0117047000001408C
:100AE000024A02EBC010C0F8D0117047000001406C
:100AF000034B1A6881B2114321EA10401860704715
:100B00004C01014001490860704700004801014064
:100B10002DE9F0410446DDF818C00E461546A088C0
:100B2000C01A80B2291AE288C2F30E0202FB00F753
:100B3000BFB251431FFA81F8216803FB0211BCF1D7
:100B4000000F12D1854205D86A433046BDE8F04116
:100B5000FFF777BB3A463046FFF773FBF019424682
:100B60002168BDE8F041FFF76CBBBDE8F0812DE9DD
:100B7000F0410446DDF818C00F461546A088C01A9B
:100B800080B2291AE288C2F30E0202FB00F6B6B266
:100B900051431FFA81F8216803FB0213BCF1000FD7
:100BA00014D1854206D86A433946BDE8F04118465B
:100BB000FFF747BB324639461846FFF742FBB919E3
:100BC00042462068BDE8F041FFF73BBBBDE8F0813D
:100BD00070B58488D51A9A4201D3ADB202E005EB14
:100BE0004405ADB235B1AC4209D2944204D8121BCF
:100BF00093B203E0002070BD224493B24381828807
:100C000001E09B1A9BB29342FBD20C460168C0885C
:100C1000C0F30E0203FB02112046FFF712FB012076
:100C200070BDF8B51746DDE9066285889C1BB342A6
:100C300001D3A4B202E004EB4504A4B234B1A5424E
:100C40000AD29D4204D85B1B9EB203E00020F8BD8F
:100C50002B449EB246818488BC4200D227468588B8
:100C6000334601E05B1B9BB2AB42FBD200923A469B
:100C7000FFF74EFF3846F8BD7CB504466089CDE9E4
:100C8000000323892046FFF7CCFF05466189A08831
:100C90002A4600F060F8608128467CBD2DE9F843C3
:100CA00005460F4614469846002C0AD02E896989BD
:100CB000E879000616D4A8888E4205D3711A89B245
:100CC00006E00020BDE8F883721A02EB400189B209
:100CD000884201D9401A00E0002080B2844222D329
:100CE000044620E0A888A0420BD8B8F1000F05D137
:100CF000EB88221AC3F30E0302FB037704460E4669
:100D000011E08E4202D3721A92B203E0731A03EB1F
:100D1000400292B22244B2EB400F04D3021B92B2C3
:100D200000F019F80646A4B1A988304601E0401A3F
:100D300080B28842FBD20346224639462846CDF887
:100D40000080FFF714FFA8882246314600F003F820
:100D500028812046B6E70346881880B2814202D82F
:100D6000B0EB430F05D35942002202EB4101084486
:100D700080B270472DE9F0410B46054611460878D0
:100D8000C0F34110012802D00020BDE8F08100240A
:100D9000374E8A88C4EB041000EB400006EB80005D
:100DA0004778974203D0641CE4B2002CF2D00CB117
:100DB0000020EAE74A78202A07D0212A15D0222AE3
:100DC0001BD0232A44D00020DFE7012B02D0032BC5
:100DD00006D04AE0021D0723284602F01FF844E02F
:100DE000011D204602F004F83FE0012B3DD1021D19
:100DF0000723284602F012F837E0012B02D0032B1C
:100E000004D032E0284601F0FBFF2EE0498811F0C3
:100E1000010F01D0012600E0002611F0020F01D0E1
:100E2000012500E00025C17012490978490705D560
:100E300086F00101143001F0A7FF03E00021143017
:100E400001F0A2FF2A463146204601F0D2FF0CE015
:100E5000012B02D0032B04D007E0284601F0D0FF7D
:100E600003E04988204601F0C8FF01208DE700001B
:100E7000582000200000002070B500240A4EC4EB6A
:100E8000041000EB400006EB800505F1200001F0A6
:100E9000FCFD05F10C0001F0F8FD641CE4B2002C2F
:100EA000EDD0012070BD0000582000202DE9FF5F2B
:100EB000B4212148FFF7A8FA0025DFF87C90A84666
:100EC00009F1B40A4FF0FF0B4027C5EB051000EB0A
:100ED000400009EB80040AEBC51684F80BB04FF410
:100EE000E130606084F8088084F809800820A072EE
:100EF000CDE9017604F17400002300901A461946EA
:100F00000397543801F0C3FD4036CDE9017604F172
:100F10003400009009480397012200780021C0F3B3
:100F2000800304F10C0001F0B2FD6D1CEDB2002D48
:100F3000CBD0BDE8FF9F000058200020000000201B
:100F40002DE9F74F884698F80500022803D198F854
:100F50000600022802D00020BDE8FE8F00210020FC
:100F6000614EC0EB001303EB430306EB830393F8DE
:100F700021408C420BD05C7B8C4208D09B788B420A
:100F800000D121B9401CC0B20028EAD0FF2008B12E
:100F90000020E1E70098307098F80200707008EBCC
:100FA000020998F8000000EB080401E020780444EE
:100FB0004C4501D3002007E020460178084448450D
:100FC00001D8012000E0002010B160782428EDD085
:100FD0006078052808D12146009802F017FA38B148
:100FE000A078B070207804446078042802D075E0BE
:100FF0000020B1E7A24654469AF805000A286DD1B0
:10100000002765E04C4501D3002007E02046017829
:101010000844484501D8012000E0002088B320782A
:10102000044425462C466878052804D1E87800F069
:101030000300022801D000208EE72946009802F024
:10104000E5F9C0B1A978C80900B306F10C004170F8
:10105000A988C1F30A01B1F5007F0ED0017821F013
:10106000020101702149097889070BD501460098D2
:1010700001F086FD2AE000206EE7017841F00201D0
:10108000EFE729E0083001F01BFE1FE006F1200B1E
:1010900058464170A988C1F30A01B1F5007F08D014
:1010A000017821F00201017010480078C00704D0D7
:1010B00007E0017841F00201F5E75846083001F0F9
:1010C000FFFD5946009801F0F7FC58B17F1CFFB2B4
:1010D0009AF80400B84295D820780444A4EB08009C
:1010E00080B239E7002037E75820002000000020B8
:1010F0002DE9F04100250E4FDFF838800026C5EBC2
:10110000051000EB400007EB8004266098F8000013
:10111000C0F3800104F1140001F036FE84F8216070
:1011200066736D1CEDB2002DE9D0BDE8F0810000C2
:1011300058200020000000202DE9F05F83460E4675
:1011400099460025374CC5EB051000EB400004EB39
:10115000800090F82120B2420CD0427BB24209D0EC
:101160008178B14201D1300004D16D1CEDB2002D67
:10117000E9D0FF2515B10020BDE8F09FA04608F199
:10118000200408F10C0A6078B04231D120468189F0
:1011900029B141681FFA89F2083001F026FE98F95A
:1011A0000B00401C15D0002711E0606898F80B1068
:1011B000C05D81420AD1208A628A904201D1012019
:1011C00000E0002010B9284601F016FE7F1C4F45B4
:1011D000EBD3208A618A884201D1012000E00020FF
:1011E00010B9284601F007FE2146584601F064FC7C
:1011F0009AF80100B0420CD1284601F0FFFD51469B
:10120000584601F0BDFC20B94A465146584601F007
:10121000ECFC98F80200B04202D1284601F0EAFD49
:101220000120A9E75820002070B506460024194D7A
:1012300018E00021944205D2696804EBC40001EB78
:10124000800108E0A01AC2B2022A04D2124902EBBD
:10125000C20001EB800100291BD0C96830468847D5
:10126000641CE4B22A78901CC0B2A042E1D82821C4
:101270000A48FFF7A7F80948FF221021001DFFF7D1
:1012800099F8BDE870400548FF220A211430FFF7A5
:1012900091B870BD040000207C3500088C2100202E
:1012A00070B5054614498889CA89801A84B24020DD
:1012B000402C00D3044600260878000610D580266E
:1012C00074B10D488968143022464FF0FF3321B1C4
:1012D000402A02D8FEF7B5FF00230BB1002070BDF5
:1012E00014B1054A143200E0002223463146284654
:1012F000BDE8704002F0DEB87422002070470000A4
:1013000010B501F00F0401212046FFF7E9FB012190
:101310002046FFF7D5FB2046BDE810400149FFF706
:10132000C1BB000002000C007047000010B58878B7
:1013300000F00F0406492046FFF7B4FB01212046C8
:10134000FFF7BEFB01212046FFF7CAFB012010BDBD
:1013500003001C0010B501F00F0401212046FFF727
:10136000BFFB01212046FFF7ABFB2046BDE8104044
:101370000149FFF797BB00000A00040010B501F017
:101380000F04C809134901EB041101EBC0010A6005
:101390008B80002C0BD0012817D001212046FFF7AD
:1013A0008FFB02212046FFF77DFB012010BD0128A5
:1013B00008D001210020FFF783FB02210020FFF766
:1013C00071FBF2E700F0E0FAEFE7204600F026FBC1
:1013D000EBE700000C2300202DE9FE4F04460F46EA
:1013E00000256078DFF838A2801EDFF83882DFF849
:1013F000389206287ED2DFE800F003321A26B4BB0A
:1014000099F8000020F0010089F8000099F8000028
:1014100020F0020089F80000002089F8010099F806
:10142000000020F0040089F800000125DDE099F8B3
:101430000000C007FAD099F8000040F0040089F8D5
:1014400000000125D1E099F80000C007EED099F81E
:10145000000020F0040089F800000125C5E0002606
:1014600019E000208E4206D2D8F8041006EBC60020
:1014700001EB800007E0711AC9B2022903D201EB27
:10148000C1000AEB800020B1026A12B120786168C5
:101490009047761CF6B298F80010881CC0B2B04293
:1014A000DFD899F80000DFF878B140072BD599F81C
:1014B000000020F0040089F80000DBE91312DBF8DB
:1014C00048008DE8070020788DF80000EA46D8F83B
:1014D000086017B93168002088475146301D01F077
:1014E0005EFC8246380002D1316801208847BAF19B
:1014F000000F00E078E006D09DF801109DF8000094
:101500003A4601F0EBFC99F8030010F0010000D01E
:10151000012028B3DBE91612DBF854008DE8070040
:1015200020788DF8000060680190E946D8F80860DE
:1015300017B93168002088474946301D01F02FFC5B
:101540008146380002D1316801208847B9F1000F87
:101550004BD09DF801109DF800003A4601F0BEFC0A
:1015600043E098F80200401C88F8020001253CE0A6
:10157000217901F00F00CA090125A0B309EB400051
:101580008618327D002098F800309A4206D202EB8D
:10159000C200D8F8042002EB800007E0D21AD2B2D1
:1015A000022A03D202EBC2000AEB8000D8B1C26962
:1015B000CAB1B27F22F00102B277B27F22F00402F8
:1015C000B27794F800C0C5696279A3686046A847FD
:1015D00080F001053DB1B07F40F00100B077B07FF1
:1015E00040F00400B07700E00125002D16D0D8F8B7
:1015F000085017B92A68002090472146281D01F09D
:10160000CEFB0646380002D1296801208847002E0B
:1016100004D0617820783A4601F060FCBDE8FE8F86
:101620007C350008040000208C21002038B5012002
:10163000FFF71EF9FFF732F90028FBD00220FFF771
:10164000F7F809210220FFF7A5F80120FFF79CF821
:10165000FFF7BCF80028FBD00120FFF7CFF80020EF
:10166000FFF7D2F84FF48070FFF7D8F8012104207B
:10167000FFF72CF90E48006800906846FFF786F9DE
:10168000FFF7DAF90B48FFF7F3F93120FFF700FA1B
:1016900003210020FFF706FA0124204600F04CF950
:1016A000641C042CF9D30520FFF722FA012038BD71
:1016B0006C3600081C0001000149042008607047D6
:1016C00080E100E0014904200860704700E100E08B
:1016D0002DE9F04786B00546784FB868410705D533
:1016E00006B02846BDE8F04700F0EAB980070ED5FD
:1016F0000220FFF707FAFFF787F9B86005200121FC
:101700008DF80C508DF80D0003A8FFF765FE387AB0
:10171000C00605D51020FFF7F5F9FFF775F9B86099
:10172000387AC0077DD00020FFF746F90020FFF788
:1017300063F904460020FFF757F906460020FFF73B
:101740003BF980074FF007095DD4A00706D004F0ED
:10175000030001282FD002284ED050E04FF4802102
:101760000020FFF79FF9002404AE0020FFF72CF9BA
:101770003055641C082CF8DB01210020FFF7A0F98C
:101780000020FFF769F901218DF8045006208DF83B
:101790000500049802900598039001A8FFF71CFE2D
:1017A0000021481E01F0A4FC06B00221BDE8F0476C
:1017B0000020FFF777B9700621D54149802000232A
:1017C0008A8901218DF80C508DF80D908DF810004C
:1017D00005928DF8113003A8FFF7FEFD01210020CE
:1017E000FFF77EF9786818B1FFF74CF900207860B0
:1017F0000020FFF731F902E0284600F0E7F8022167
:101800000020FFF74FF90124DFF8B480E0B2FFF7C2
:10181000D3F880074CD4E0B2FFF7EEF88246E0B28E
:1018200000E048E0FFF7E0F80646B00606D5E0B273
:10183000FFF712F9E0B20221FFF734F90AF00300D2
:10184000012802D002281DD020E070061ED5E0B28B
:101850000121FFF745F908EB041100238A8944F0C0
:10186000800001218DF80C508DF80D908DF810003E
:1018700005928DF8113003A8FFF7AEFDE0B2FFF737
:10188000EBF803E0E1B2284600F0EEF808EB0410B4
:10189000807908280CD0E0B20221FFF703F93878EC
:1018A000FFF7A2F8C00603D502213878FFF7FAF84F
:1018B000641C042CAAD306B0BDE8F08744000020C5
:1018C0000C230020014841607047000044000020C4
:1018D000704770B5044604F12005E67F2973616BFB
:1018E000A068401AA860022084F8380094F83900F3
:1018F000002805D1607B00232022052101F068FB30
:10190000A068002816D0A868002813D0207B10F00B
:10191000800000D0012030B194F82E103046BDE890
:10192000704001F09FBD94F82F103046BDE8704024
:1019300001F098BD70BD000070B50446002001F0B4
:1019400093FA41880D18002116E003784278042AA2
:1019500002D0052A02D00EE041790CE08278A24242
:1019600009D1074800EB04108171082901D105480D
:101970000470084670BD1844A842E6D3002070BD2C
:101980000C2300204400002070B50F4D01210020E1
:10199000FFF7A6F8A88808B100240CE0BDE8704065
:1019A00002210020FFF77EB82868015D0020FFF7C4
:1019B0008FF8641CA4B2A888A042F5D8BDE8704096
:1019C00002210020FFF76EB814230020FEB5074661
:1019D000114E0020FFF700F80546002405E0002026
:1019E000FEF7F2FF31680855641CAC42F7D30121C1
:1019F0000020FFF765F80020024601218DF80070F5
:101A000007238DF801308DF8040002958DF805202C
:101A10006846FFF7E1FCFEBD0C23002070B50646CA
:101A2000104800EB0615083501213046FFF758F83D
:101A3000A88808B100240CE03046BDE870400221BF
:101A4000FFF730B82868015D3046FFF741F8641CA5
:101A5000A4B2A888A042F5D83046BDE87040022163
:101A6000FFF720B80C2300202DE9FE4380460F46E7
:101A7000124800EB07163846FEF7AEFF0546002475
:101A800005E03846FEF7A0FF31680855641CAC42FB
:101A9000F7D301213846FFF713F8002001218DF814
:101AA000008007228DF801208DF8047002958DF8D2
:101AB00005006846FFF790FCBDE8FE830C2300207C
:101AC000FEB505461948002444600020FEF7DAFF01
:101AD0000020174A02EB00118C608C810C608C8016
:101AE000401C0428F6DB0024124F4FF4F816E0B235
:101AF0000121FEF7F5FFE0B20121FEF7E1FFE0B2C0
:101B00003146FEF7CFFFE0B23946FEF7CBFF641C4B
:101B1000042CECDB00208DF8005001218DF8011021
:101B20008DF804006846FFF757FCFEBD4400002016
:101B30000C23002003001C0070B505460C46164619
:101B4000606901F0C9FB324628466369BDE8704010
:101B5000012118471FB50121C805FEF7B7FE01A8EE
:101B6000FEF704FE0320ADF8040001208DF8060006
:101B70008DF80D008DF80E0001A90848FEF710FD44
:101B80000748006800906946002001F073FB4FF0A1
:101B9000FF340021204601F0ABFAFAE700800B4049
:101BA00078350008F8B506461446012901D0012011
:101BB000F8BD444D207800F07F01022904D16178FE
:101BC000012901D1618829B1C0F3411001284DD00C
:101BD0000020F8BD2079C1B295F83800042806D05D
:101BE00095F82E208A4220D1022804D03AE03046CF
:101BF00001F038FC36E0EC7F696BA868401AA862F7
:101C0000032085F838002F480D2205F120014030CF
:101C1000FEF79EFB2B4A95F82E100D2340322046EE
:101C200001F048FCF0B90020F8BD95F82F408C4237
:101C300018D1B8B92146304601F0B2FB074621461B
:101C4000304601F029FC074387F0010050B115F838
:101C50001F0F002169761B4A297C1F23403201F0A7
:101C600029FC08B10120F8BD0020F8BD6078FE28ED
:101C700011D0FF2801D00020F8BD608808B9E088A5
:101C800008B10020F8BD284600F08EF92146304604
:101C900001F0B6F812E0608810B9E088012801D0A0
:101CA0000020F8BD01F02CF9009048B1401E0090D2
:101CB00001236A462146304601F0B0F80120F8BD04
:101CC0000020F8BD4C23002040210148FEF79CBBBA
:101CD0004C2300201CB54B79082B05D18B79062BA2
:101CE00002D1CB79502B01D000201CBD172A01D284
:101CF00000201CBD104C8A7884F82D20E0770A78EB
:101D0000114404F12E02531CCDE9003202231A467D
:101D100001F000FC60B114F81F0F00216176064A43
:101D2000217C1F23403201F0C5FB18B117201CBDD8
:101D300000201CBD17201CBD4C2300204021014861
:101D4000FEF762BB4C2300202DE9F0478C4681460C
:101D50001946924C04F1200594F838000027022619
:101D60004FF0010804F10F0A002808D0224601288C
:101D7000D27B78D0022852D0032850D1DFE094F8EB
:101D80002F00604502D00120BDE8F0878348403035
:101D900000681F2902D1824988420CD004202E34C9
:101DA000A0722178484601F05DFB6178484601F059
:101DB00059FB0020E8E779491F2240312046FEF711
:101DC00040FA7848286060686860AF602F7384F8D4
:101DD0003880A16821636763E07B282817D02A2810
:101DE00015D0A06828B1217B11F0800100D001211D
:101DF00031B36A4A5146607B402340320D4600F0C1
:101E0000DDF8002839DA94F8391069B335E0204656
:101E100000F0C6FD014619B12046FFF75AFDA8E0C3
:101E2000A06850B1E07B282803D0204600F0A6FA35
:101E30009FE0204600F0FCF99BE084F8386098E0D1
:101E4000402804D901212046FFF743FD91E0208E70
:101E5000524A83B294F82F104032484601F02AFBD0
:101E6000002811D190E733E0FFE7208E4B4A83B280
:101E7000607B4032294601F0A0F8002805DA4FF0D7
:101E800001012046FFF725FD73E00AD1A06828B1C3
:101E90004FF001012046FFF71CFD6AE084F838602E
:101EA00067E0A16869B1884200D3084620633B4AD5
:101EB00083B294F82E104032484601F0FBFA28B164
:101EC00057E001212046FFF704FD52E000205BE7C8
:101ED000402901D9002057E73048282A406B0844A0
:101EE00009D02A2A12D06063207B10F0800000D035
:101EF000012078B11CE06063216B884202D384F832
:101F0000386036E0204600F093F932E0204600F0D9
:101F100059FA2EE0208E214A83B2607B403251462E
:101F200001F04BF8002803DA01212046FFF7D1FC2D
:101F3000D4E90C1088421CD384F8386019E094F876
:101F40002E00604515D10D2913D11448282A407B55
:101F500014D02A2A15D0514601F038F8E07F84F8D1
:101F600038700E4A94F82F101F23403201F0A2FA65
:101F700050B194F83800022808D00BE001F01AF8AC
:101F8000ECE701F059F8E9E70020FDE6204600F013
:101F9000C1F908B10120F7E60020F5E64C23002046
:101FA0005553424355534253002130300172016072
:101FB000416041728172C172704700002DE9F043A7
:101FC00085B081468C4617469846974D9CF8000090
:101FD00096494FF0FF361B2825D007DC88B103282F
:101FE0006FD012286ED01A2806D1D0E01E2833D028
:101FF000232875D0252845D03446204605B0BDE8B5
:10200000F0830024484600F0F5FF0028F5D134465F
:1020100095F839000028F0D1484600233A220221E1
:1020200000F0D6FFE9E700249CF80400C0F3400369
:10203000C0F300020109484600F0D2FF0028DCD1BD
:10204000344695F839000028D7D1484600233A2273
:10205000022100F0BDFFD0E700249CF805209CF889
:102060000410484600F087FF0028C6D1344695F892
:1020700039000028C1D1484600233A22022100F04D
:10208000A7FFBAE703AA04A9484600F034FFBDF849
:102090000C000499C1B1B8B10499491E09BA019163
:1020A00000BA02900824384601A9224628B1B8F1A6
:1020B000080F02D3FEF7C5F80026002E9DD00020A1
:1020C0009CE77FE03EE00BE0344695F839000028BD
:1020D00093D1484600233A22022100F079FF8CE791
:1020E000D1E90102C968CDE9032102906A4601A93C
:1020F000484600F000FF0199C1B1BDF80000A8B149
:1021000009BA0391010A41EA0020ADF812000C243B
:10211000384602A9224628B1B8F10C0F02D3FEF7C7
:1021200090F80026002E96D0002067E7344695F8F8
:10213000390000288FD1484600233A22022100F0BE
:1021400047FF5AE73D4624212846FEF73BF96878C9
:1021500040F0800068700220A870E87820F00F003E
:10216000801CE8701F20287142462946484600F02E
:10217000C9FE0446200084D105F1200305F11002B8
:1021800005F10801484600F0F3FE242435E708680D
:102190000490484600F0EDFEC1439DF8120061F343
:1021A000C7108DF812000424384604A9224628B12D
:1021B000B8F1040F02D3FEF744F80026002E8ED0AB
:1021C00000201BE71422194910316846FEF7C0F8B9
:1021D0000A208DF8070015F8390F9DF8021060F3FA
:1021E00003018DF8021068788DF80C00A8788DF83E
:1021F0000D0012223846694628B1B8F1120F02D3F9
:10220000FEF71FF800260EB10020F7E61FFA88F24D
:102210003946484600F0CFFE044600231A461946C8
:10222000484600F0D5FEE8E64C2300207036000852
:10223000F8B5044604F116000088010AC0B241EA6C
:1022400000200025002829D0A168B1FBF0F080B261
:10225000002825D02146D1F8111009BA636BB3FBD1
:10226000F0F21144B3FBF0F200FB1232A0684026FA
:10227000C01A402800D93046012684F83C600090FE
:10228000607B084B00F07AFE0146881C08D084F879
:102290003C502046BDE8F84000F006B82846D7E795
:1022A000F8BD00008C2300203EB50446E07F0029E5
:1022B00008DD8BB294F82E1003B0154ABDE830400B
:1022C00001F0F8B8B1F1FF3F14D0002911D100237B
:1022D00094F82E201C4619468DF8000007208DF832
:1022E00001008DF8042002938DF805406846FFF741
:1022F00073F83EBD607B00233A22022100F068FEA5
:1023000003B02046BDE830400121FFF7E2BA0000EB
:102310008C23002070B50446E57F94F82E102846E3
:1023200001F0BAF818BBA068626B90420BD9217B10
:1023300011F0800100D0012129B194F82E10284617
:1023400001F090F813E0E57F801AA062032084F882
:1023500038000D2204F120010748FDF7F9FF94F839
:102360002E100D23044A284601F0A4F808B10120DC
:1023700070BD002070BD00008C23002010B5044605
:10238000607B00F0F6FD78B1A068626B4021801A96
:10239000402800D9084683B294F82F10E07FBDE8AA
:1023A0001040074A01F086B8607B002327220721EE
:1023B00000F00EFE2046BDE810400121FFF789BA6B
:1023C0008C230020F8B504460D4604F11600008861
:1023D000010AC0B241EA00200026002825D0A168E9
:1023E000B1FBF0F080B2002821D02146D1F81110C5
:1023F0000ABA616BB1FBF0F3D718B1FBF0F200FB46
:102400001212012184F83C100095607B084B39467C
:1024100000F0FEFD0246901C09D084F83C6029467D
:102420002046BDE8F84000F005B83046DBE7F8BDCF
:102430008C2300203EB50446002A0FDAB2F1FF3F9C
:1024400028D1607B00233A22022100F0C1FD03B0B5
:102450002046BDE830400121FFF73BBA8A421AD23C
:102460008D1A002A04DD134881182A46FDF72EFF35
:10247000E07F94F82F20002319468DF800000720F4
:102480008DF801008DF8042002958DF8053068461E
:10249000FEF7A2FF3EBD606B08446063216B88427B
:1024A00003D3022084F838003EBD2046BDE83E40FC
:1024B000FFF764BF8C2300202DE9F84307460C4644
:1024C000002000F009FF2078C0F34112032A02D354
:1024D0000020BDE8F883022A0ED0DFF8C0C2B04D5C
:1024E000B04B10F01F014FF000080ED0012977D03B
:1024F000022976D00020ECE7AB4800F0EDFE224642
:102500000121384600F0B3FEE3E7012A04D010F0C1
:10251000600F24D00020DCE72079C0B2102801D35E
:102520000020D6E72844007900211A78904205D28D
:10253000596800EBC00001EB800107E0801AC0B2CF
:10254000022803D200EBC0000CEB800129B1224627
:102550003846BDE8F843FFF7EFBA0020B9E76078E6
:102560000A2879D2DFE800F0685A784C7805457877
:10257000111A204600F0B6FEA1783846FFF7A2F9FE
:10258000287840F00200287006E168780090012366
:102590006A462146384600F041FCFDE0A67868789E
:1025A000B04218D0687868B100213846FFF790F93A
:1025B0003846FEF7B9FE95F802903846FEF734FE2D
:1025C00085F802906E706EB13146384600F052F9CF
:1025D00058B100F08FFC2146384600F011FCDBE0DA
:1025E0003CE07CE000F042FEF5E785F80180002049
:1025F0006FE72146384600F0D9F800280DD168E78A
:102600006088012801D0002063E7287840F00800A6
:1026100028702146384600F0F3FBBDE060880128B1
:1026200001D0002055E7287820F0080028702146C6
:10263000384600F0E5FBAFE028780222C0F34011F5
:1026400002EA90000143009102236A46214638467F
:1026500000F0E4FBA0E0FFE700203AE72079C0B2F9
:10266000102801D3002034E72844007900211A788B
:10267000904205D2596800EBC00001EB800107E0F1
:10268000801AC0B2022803D200EBC0000CEB80011C
:1026900029B122463846FFF74FFA10B17CE00020FE
:1026A00017E7207810F0600F01D0002011E700201C
:1026B00000F012FE60780A2803D00B280AD0002010
:1026C00007E7CDF8008001236A462146384600F02E
:1026D000A5FB61E02146384600F092FB5CE02179E1
:1026E000C9B201F00F02CE09052A01D30020F0E69D
:1026F00005EB42023244127D002693F800804245E9
:1027000005D25B6802EBC20203EB820608E0A2EB93
:102710000802D2B2022A03D202EBC2020CEB8206FA
:1027200010F0600F09D036B1224631463846BDE878
:10273000F843FFF701BA0020CBE6607828B1012802
:102740000ED003280CD00020C3E6384600F0A4FECB
:10275000009002236A462146384600F05FFB1BE0EA
:10276000628822B901280FD0384600F07BFE9EB166
:10277000224631463846FFF7DFF9002000F0ACFD75
:10278000E87FC00704D007E0384600F025FEEEE7FA
:102790002146384600F034FB01209AE67C350008DB
:1027A0008C210020040000206F32000870B505461F
:1027B0000C466088020AC0B2062A4DD006DC012A07
:1027C0000AD0022A23D0032A04D137E0072A1ED0D8
:1027D0000F2A0ED0002070BD00F04AFB024632B135
:1027E00021462846BDE87040122300F017BB0020A8
:1027F00070BD00F037FB02463AB1104643882146CF
:102800002846BDE8704000F009BB002070BD022AD8
:1028100004D000F035FB024672B103E000F024FB67
:1028200002463AB11046438821462846BDE870402A
:1028300000F0F4BA002070BD002070BDA18800F047
:1028400021FB024632B1137821462846BDE870408C
:1028500000F0E4BA002070BD00F00EFB024632B179
:10286000137821462846BDE8704000F0D7BA002012
:1028700070BD00002DE9F35F491EC8B200F0F4FA04
:1028800010B14178022902D00020BDE8FC9FC17937
:102890003F4A4B09117863F304111170C3799B0906
:1028A00063F34511117000F10904418801EB00093F
:1028B000DFF8E0B067E04FF0010860780B2803D143
:1028C00094F80380207804446078042801D0002024
:1028D000DBE7A9EB04001FFA80FA002545E000269B
:1028E000854206D2DBF8041005EBC50001EB80063B
:1028F00008E0281AC0B2022804D2274900EBC00021
:1029000001EB80066EB13369524621460098984724
:102910000746092F27D3574525D8B8F1010F02D014
:1029200007E00020B1E71D493069884201D14FF02E
:1029300002080020164A0BE0A1780144C9B21144F4
:102940000B79FF2B01D000209FE70D71401CC0B216
:102950004045F1D30E482B463A462146143000F04C
:1029600058F83C4407E06D1CEDB29BF80000811C58
:10297000C9B2A942B3D89BF80000801CC0B2A842DB
:1029800001D8002081E74C4595D301207DE7000068
:102990008C210020040000207C350008410F000835
:1029A00030B5014600200A46D28A130AD2B243EA61
:1029B00002228B68002B03D0CC7B282C04D009E0AA
:1029C000002A00D0022030BD0D7B15F0800500D01C
:1029D000012515B12A2C02D009E0022030BD097B67
:1029E00011F0800100D0012109B1022030BD2AB1CF
:1029F000B3FBF2F10029F9D1022030BD012030BD36
:102A000009786FEA0161C90FC90100231A4600F075
:102A100051BD30B58C180BE04A78052A06D18A786A
:102A200002F00F0500EB4505D209AB540A781144BA
:102A3000A142F1D330BD0178C90701D00020704711
:102A40000178490701D5002070470178C90704D1F2
:102A50000178490701D4012100E0002119B1027871
:102A600042F004020270084670470178490702D517
:102A70000178C90707D0002119B1027822F00402B9
:102A80000270084670470121F6E701207047F8B54B
:102A90000446DDE90672DDE90856207861F300009E
:102AA000207000930123394604F1080000F00DF96D
:102AB000656066800120F8BD2DE9F04105460C46B1
:102AC000A1892078002904D080071ED54FF4007614
:102AD0001CE0C0070AD16178284600F06FFC28B1DD
:102AE000638828462178C9070DD102E00020BDE89F
:102AF000F0810BB1626800E00022617800F0DAFC3E
:102B000008B16088F3E70020F1E7402604F10800EF
:102B1000074600F026F9B04201D20020E7E7284638
:102B20002178C90715D1617800F048FC88B1384692
:102B300000F017F9B0421AD3761EB04366880746F4
:102B4000B74200D23E46284633462178C9070CD109
:102B500001E00020CBE70BB1626800E00022617861
:102B600000F0A8FC08B13046C1E70020BFE72846C6
:102B70002178C90702D1617800F066FC0020B6E731
:102B800070B505460C4604F10800064600F0B3F89F
:102B900020B128462178C90713D101E0002070BD7B
:102BA000617800F00BFC60B162883046616800F02B
:102BB000D5F8064686B1284633462178C90709D19B
:102BC00001E0002070BD6178626800F073FC08B11C
:102BD000304670BD002070BD28462178C90702D15B
:102BE000617800F031FC002070BD70B506460C46DF
:102BF0002378980702D54FF4007100E04021208A25
:102C0000658AA84201D1012500E0002568421042F2
:102C100002D0491E0A4201D0002070BD3046D907BB
:102C200009D1617800F0CAFB28B130460023217831
:102C3000C90709D101E0002070BD0022617800F0D1
:102C400039FC08B1012070BD002070BD30B583880B
:102C5000C3F30A03C4784FF4806504F00304012C25
:102C600005D0022C0BD0032C21D0002030BD02292E
:102C700001D040F2FF35AB4220D9002030BD4FF4E7
:102C80000074022905D042B1A34206D140218180BF
:102C900014E0A34212D0002030BD082B0ED0102B20
:102CA0000CD0202B0AD0402B08D0002030BD0229A8
:102CB00000D04025AB4201D9002030BD012030BDFD
:102CC0000021418101810120704710B5029CB2F5BD
:102CD000004F01D9002010BD01608280C18863F3DC
:102CE0000E01C180C17964F3C711C1710021418116
:102CF0000181012010BD02469088118952899142BC
:102D000002D3891A89B203E08A1A02EB400189B220
:102D1000814200D2084670478288018940898142F9
:102D200002D3081A80B203E0091A01EB420080B214
:102D3000904201D3012070470020704770B50446CF
:102D4000638922892046FDF743FF05466189A088F3
:102D50002A46FEF700F86081284670BD0023FDF783
:102D60008BBF818802894089824202D3101A80B2C7
:102D700003E0121A02EB410080B2814201D9081A25
:102D800000E0002080B27047C279B1EBD21F01D1C0
:102D90000120704761F3C712C2710120704770B5FE
:102DA00004460B4625892046FFF7B6FF20B1E0799F
:102DB000000601D4002070BDA0882A4601E0111A47
:102DC0008AB28242FBD210461946E2882368C2F3D7
:102DD0000E0200FB0230FDF734FAA08801222946DA
:102DE000FDF7B9FF2081012070BD0023FDF756BF1C
:102DF00070477047704770477047704770470000D2
:102E0000054A0B6813604B68536000239360D381BD
:102E10009381FFF7F5BD00007422002070B5104DBE
:102E20000C682C604C686C60AA600024EC81CC8833
:102E3000A34200D32346AB81CC884CB103B11AB175
:102E4000FEF72EFA10B106E0002070BD002070BD24
:102E5000FFF7D6FD08B1012070BD002070BD000055
:102E6000742200200020704700487047FE3500089B
:102E700000487047EC35000800487047603600088D
:102E80000020704770B51349134C002803D0062862
:102E900006D3002070BD086800886080012010E023
:102EA00051F820502846FDF7ADF9202800D9202000
:102EB000002104E04A1C6B5C24F81230491C81425A
:102EC000F8D3022101EB400040F44070208002481A
:102ED00070BD00002C000020C822002070470000B8
:102EE00003484078FF2801D0012070470020704738
:102EF00004000020704710200860400110807047D7
:102F00000120704710B588B00C4612A003C8CDE967
:102F1000060112A292E80B00D268CDE90201CDE9C8
:102F2000043212A000680190082206A904F10800EA
:102F3000FDF791FA102202A904F11000FDF78BFAB7
:102F4000042201A904F12000FDF785FA08B024202D
:102F500010BD00004D696C616E6472004D61737349
:102F60002053746F7261676500000000312E3000DD
:102F700070470120704701207047000070B5184667
:102F8000049C4FF0FF35102901D3284670BD02EB99
:102F900041232344B3F5005F01D9284670BD044B9B
:102FA00003EB412111442246FDF74BF9204670BD49
:102FB0005100002070471220704710B500232022D6
:102FC000052100F005F84FF0FF3010BD70470000FC
:102FD00002480170427083700120704785230020F1
:102FE000002B03D012B9024901200870012070475C
:102FF0005000002005490978002904D000233A2216
:103000000221FFF7E5BF01207047000050000020BB
:1030100010B5029C102902D34FF0FF3010BD0548B7
:1030200000EB4120104422461946FDF70AF92046DC
:1030300010BD000051000020704770472DE9F0419D
:1030400006460F46FFF74CFF10B10120BDE8F081A6
:10305000B7B128212248FDF7B5F9224D0020A8700C
:1030600005F11404201DFFF72BFEAC60284600F08C
:1030700029F968602878801CFF2803D90020E5E73B
:103080000020E3E7002417E000229C4205D2696893
:1030900004EBC40001EB800208E0E01AC0B2022891
:1030A00004D2114900EBC00001EB8002A2B15068CC
:1030B00090B18047641CE4B22B78981CC0B2A04247
:1030C000E2D86E7039463046FEF7B0FA30B130467D
:1030D000FEF7F8FA0120B9E70020B7E70020B5E7CE
:1030E0008C210020040000207C35000870477047C8
:1030F000FEB5FFF7F5FE00287ED0594C594E9EE0F4
:103100009DF8010009280DD2DFE800F099050D9027
:103110007B8414428A009DF8000000F026FA9DF896
:103120000400A0708BE09DF8000000F01EFA00F093
:103130009DF884E0B07800285ED0B078401EB07072
:10314000B07800287BD1207840F001002070A07F6B
:1031500020F00100A077A07F20F00400A077E07F9E
:1031600020F00100E077E07F20F00400E0779DF898
:10317000000001A9FFF7A0F968BB9DF8000000213D
:10318000FEF7E8F89DF800008021FEF7E3F856E02E
:103190009DF8041001F00F02C80904EB4203184423
:1031A000837F23F001038377837F23F004038377F6
:1031B00052B1007D0025327890420DD2726800EB4A
:1031C000C00002EB800510E09DF805209DF800008E
:1031D000029B00F093F832E0801AC0B2022804D2B9
:1031E000214A00EBC00002EB8005002D37D09DF88E
:1031F00005209DF8000000E031E0AD69029BA84782
:103200001DE02078C0071AD02078C0F3C000FFF777
:103210006EFF14E02078C00711D0FFF70EFF0EE01C
:10322000019860B1DDE90110884708E0E07810F00E
:10323000010000D0012010B10198FFF757FFB568D9
:103240006F460020296888473946281DFFF776FD1C
:103250000746296801208847002F7FF451AFFEBD43
:103260008C210020040000207C35000870470020DD
:103270007047000038B5114C002908D0022813D23D
:103280000A788AB122540A78012A0FD011E00C483A
:103290000068009069460020FFF7D0FE10B10120C1
:1032A000207038BD002038BD002038BDFFF7C6FEB5
:1032B00008B1012038BD002038BD000028000020E2
:1032C000E8350008002101700020704714210148F2
:1032D000FDF79AB874220020014908617047000088
:1032E00074220020044902680A6040684860002097
:1032F0008860C881888170477422002070B50646B6
:103300001C46C909254D2878B1EBD01F0ED00CB151
:10331000002070BD21493046FDF7F0FF2B691BB13D
:103320001E4A032130469847012070BD000606D48E
:10333000A868F0B1194922461431FCF782FFE889E8
:10334000204480B2E881A9682144A960E9888142CB
:1033500001D0402C1AD201202B691BB10F4A022147
:103360003046984748B10D493046FFF749FB10B148
:1033700010E0002070BD002070BD00213046FDF738
:10338000E9FF80213046FDF7E5FF03E03046FDF719
:1033900087FF08B1012070BD002070BD742200209D
:1033A00001F00F00C909044A02EB40000844807F85
:1033B000C0F30000704700008C21002001F00F00D6
:1033C000C909044A02EB400008441E300021FFF7FF
:1033D00032BB00008C21002070B50A48407801F013
:1033E0000F04CD09FDF78CFF074800EB440028448B
:1033F000817F21F002018177817F21F001018177B6
:1034000070BD0000040000208C21002070B50C4627
:103410000B484578A17801F00F01052901D3002060
:1034200070BD0848002281782046FFF70FFC28B1C4
:1034300021462846BDE87040FDF778BF002070BDEA
:10344000040000208C21002001F00F00C909044A6B
:1034500002EB400008441E300021FFF706BB0000CD
:103460008C21002070B50A48407801F00F04CD0986
:10347000FDF770FF074800EB44002844817F41F0CE
:1034800002018177817F41F00101817770BD0000E9
:10349000040000208C21002001F00F00C909044A1B
:1034A00002EB40000844807FC0F3400070470000FA
:1034B0008C21002070B51048407801F00F04CD0930
:1034C0000E4E06EB44042C44A57FED0701D00020EE
:1034D00070BDA57F45F00105A577FDF74FFF08B149
:1034E000012070BDA07F20F00100A077A07F20F018
:1034F0000400A077002070BD040000208C21002073
:1035000001000348407801D0FEF7DCB8FEF7D4B8DC
:10351000040000202DE9F0478246DDE908890C46C9
:1035200016461F4600251CE06078052804D1E07887
:1035300000F00300B84202D00020BDE8F087214629
:103540005046FFF763FF28B1A078C10921B189F87F
:10355000000003E00020F0E788F800002078044431
:103560006D1CB542E0DB0120E7E710B5FDF75CFE1E
:10357000BDE81040FFF7AABE0100000000000000F7
:10358000AD0E0008790E0008F1100008410F000888
:10359000750D00083911000800000000000000004F
:1035A00000000000C91C0008000000003D1D0008CC
:1035B000D51C0008A51B0008491D000800000000DC
:1035C00000000000000500000000000000000000F6
:1035D00000030000000000000000000000080000E0
:1035E00000000000000000000100090412010002B8
:1035F000EF020140FECA0340000100000001090281
:1036000062000301008032080B0002020200000980
:10361000040000010202000005240020010524012D
:103620000001042402060524060001070581031099
:10363000000109040100020A00000007050202401F
:10364000000007058202400000090402000208068B
:1036500050000705030240000007058302400000F8
:103660000A06000200000040010000000205000000
:10367000030000000000000800000000000000003F
:10368000F00000000000000000000000000000004A
:10369000000000004D696C616E6472204344430079
:1036A0004D696C616E6472204D5343004D696C61CD
:1036B0006E64722044657669636500004D696C61D3
:1036C0006E647200E43600080000002058200000FC
:1036D000FC0000083438000858200020D8090000F9
:1036E000580100084204A2FF1301356A080813B408
:1036F00021132010920C1AEA1413BC361B08AC04D8
:10370000411A94085AA00C91100CEB3C904D534474
:103710004F53352E301402010113011012101AF804
:10372000081902811280242934120014FF4D696C9B
:10373000616E6472204D5343464154313220202043
:1037400001C10008FF55AAF8FFFFFF0F01FCA00D03
:103750004D696C616E6472204D534308654F6D6511
:1037600043100D524541444D452020545854201BD0
:10377000C65218291A1A8808120202FF8101C41EB3
:10378000546869732003181F54696E795553422099
:103790004D61737353746F7261676520616E64204D
:1037A00043444320436C15181665732064656D6FA0
:1037B0002E0D0A0D0A496620796F75206669213839
:1037C00010616E792062756773206F72206765746F
:1037D0001018267175657374696F6E732C2077727B
:1037E00069746520746F207573206174207375701F
:1037F000706F7274406D696C5E05FF722E72750198
:10380000FF01FF01FF01FF01FF01FF01FF01FF01B8
:10381000FF01FF01FF01FF01FF01FF01FF01FF01A8
:10382000FF01FF01FF01FF01FF01FF01FF01FF0198
:043830009C13127A59
:04000005080000C12E
:00000001FF
